{
    "_format": "hh-sol-artifact-1",
    "contractName": "DCRRaceFaucet",
    "sourceName": "contracts/DCR/DCRRaceFaucet.sol",
    "abi": [
        {
            "anonymous": false,
            "inputs": [
                {
                    "indexed": true,
                    "internalType": "uint256",
                    "name": "id",
                    "type": "uint256"
                },
                {
                    "components": [
                        {
                            "internalType": "uint256",
                            "name": "id",
                            "type": "uint256"
                        },
                        {
                            "internalType": "address",
                            "name": "bettor",
                            "type": "address"
                        },
                        {
                            "internalType": "uint256",
                            "name": "raceId",
                            "type": "uint256"
                        },
                        {
                            "internalType": "uint256",
                            "name": "lap",
                            "type": "uint256"
                        },
                        {
                            "internalType": "uint256",
                            "name": "amount",
                            "type": "uint256"
                        },
                        {
                            "internalType": "uint256",
                            "name": "contestantId",
                            "type": "uint256"
                        },
                        {
                            "internalType": "enum DCRRaceFaucet.BetResult",
                            "name": "result",
                            "type": "uint8"
                        },
                        {
                            "internalType": "enum DCRRaceFaucet.BetType",
                            "name": "betType",
                            "type": "uint8"
                        },
                        {
                            "internalType": "bool",
                            "name": "claimed",
                            "type": "bool"
                        }
                    ],
                    "indexed": false,
                    "internalType": "struct DCRRaceFaucet.Bet",
                    "name": "bet",
                    "type": "tuple"
                }
            ],
            "name": "BetCreated",
            "type": "event"
        },
        {
            "anonymous": false,
            "inputs": [
                {
                    "indexed": true,
                    "internalType": "uint256",
                    "name": "id",
                    "type": "uint256"
                },
                {
                    "components": [
                        {
                            "internalType": "uint256",
                            "name": "id",
                            "type": "uint256"
                        },
                        {
                            "internalType": "address",
                            "name": "bettor",
                            "type": "address"
                        },
                        {
                            "internalType": "uint256",
                            "name": "raceId",
                            "type": "uint256"
                        },
                        {
                            "internalType": "uint256",
                            "name": "lap",
                            "type": "uint256"
                        },
                        {
                            "internalType": "uint256",
                            "name": "amount",
                            "type": "uint256"
                        },
                        {
                            "internalType": "uint256",
                            "name": "contestantId",
                            "type": "uint256"
                        },
                        {
                            "internalType": "enum DCRRaceFaucet.BetResult",
                            "name": "result",
                            "type": "uint8"
                        },
                        {
                            "internalType": "enum DCRRaceFaucet.BetType",
                            "name": "betType",
                            "type": "uint8"
                        },
                        {
                            "internalType": "bool",
                            "name": "claimed",
                            "type": "bool"
                        }
                    ],
                    "indexed": false,
                    "internalType": "struct DCRRaceFaucet.Bet",
                    "name": "bet",
                    "type": "tuple"
                }
            ],
            "name": "BetDeleted",
            "type": "event"
        },
        {
            "anonymous": false,
            "inputs": [
                {
                    "indexed": true,
                    "internalType": "uint256",
                    "name": "id",
                    "type": "uint256"
                },
                {
                    "components": [
                        {
                            "internalType": "uint256",
                            "name": "id",
                            "type": "uint256"
                        },
                        {
                            "internalType": "address",
                            "name": "bettor",
                            "type": "address"
                        },
                        {
                            "internalType": "uint256",
                            "name": "raceId",
                            "type": "uint256"
                        },
                        {
                            "internalType": "uint256",
                            "name": "lap",
                            "type": "uint256"
                        },
                        {
                            "internalType": "uint256",
                            "name": "amount",
                            "type": "uint256"
                        },
                        {
                            "internalType": "uint256",
                            "name": "contestantId",
                            "type": "uint256"
                        },
                        {
                            "internalType": "enum DCRRaceFaucet.BetResult",
                            "name": "result",
                            "type": "uint8"
                        },
                        {
                            "internalType": "enum DCRRaceFaucet.BetType",
                            "name": "betType",
                            "type": "uint8"
                        },
                        {
                            "internalType": "bool",
                            "name": "claimed",
                            "type": "bool"
                        }
                    ],
                    "indexed": false,
                    "internalType": "struct DCRRaceFaucet.Bet",
                    "name": "bet",
                    "type": "tuple"
                }
            ],
            "name": "BetUpdated",
            "type": "event"
        },
        {
            "anonymous": false,
            "inputs": [
                {
                    "indexed": true,
                    "internalType": "uint256",
                    "name": "id",
                    "type": "uint256"
                },
                {
                    "components": [
                        {
                            "internalType": "string",
                            "name": "name",
                            "type": "string"
                        },
                        {
                            "internalType": "string",
                            "name": "description",
                            "type": "string"
                        },
                        {
                            "internalType": "uint256",
                            "name": "id",
                            "type": "uint256"
                        },
                        {
                            "internalType": "string",
                            "name": "pic",
                            "type": "string"
                        }
                    ],
                    "indexed": false,
                    "internalType": "struct DCRRaceFaucet.Contestant",
                    "name": "contestant",
                    "type": "tuple"
                }
            ],
            "name": "ContestantCreated",
            "type": "event"
        },
        {
            "anonymous": false,
            "inputs": [
                {
                    "indexed": true,
                    "internalType": "uint256",
                    "name": "id",
                    "type": "uint256"
                }
            ],
            "name": "ContestantDeleted",
            "type": "event"
        },
        {
            "anonymous": false,
            "inputs": [
                {
                    "indexed": true,
                    "internalType": "uint256",
                    "name": "raceId",
                    "type": "uint256"
                },
                {
                    "indexed": true,
                    "internalType": "uint256",
                    "name": "contestantId",
                    "type": "uint256"
                },
                {
                    "indexed": false,
                    "internalType": "bool",
                    "name": "status",
                    "type": "bool"
                }
            ],
            "name": "ContestantRaceStatusChanged",
            "type": "event"
        },
        {
            "anonymous": false,
            "inputs": [
                {
                    "indexed": true,
                    "internalType": "uint256",
                    "name": "raceId",
                    "type": "uint256"
                },
                {
                    "indexed": false,
                    "internalType": "uint256[]",
                    "name": "contestantIds",
                    "type": "uint256[]"
                },
                {
                    "indexed": false,
                    "internalType": "bool",
                    "name": "status",
                    "type": "bool"
                }
            ],
            "name": "ContestantRaceStatusChangedBatch",
            "type": "event"
        },
        {
            "anonymous": false,
            "inputs": [
                {
                    "indexed": true,
                    "internalType": "uint256",
                    "name": "id",
                    "type": "uint256"
                },
                {
                    "components": [
                        {
                            "internalType": "string",
                            "name": "name",
                            "type": "string"
                        },
                        {
                            "internalType": "string",
                            "name": "description",
                            "type": "string"
                        },
                        {
                            "internalType": "uint256",
                            "name": "id",
                            "type": "uint256"
                        },
                        {
                            "internalType": "string",
                            "name": "pic",
                            "type": "string"
                        }
                    ],
                    "indexed": false,
                    "internalType": "struct DCRRaceFaucet.Contestant",
                    "name": "contestant",
                    "type": "tuple"
                }
            ],
            "name": "ContestantUpdated",
            "type": "event"
        },
        {
            "anonymous": false,
            "inputs": [
                {
                    "indexed": false,
                    "internalType": "uint8",
                    "name": "version",
                    "type": "uint8"
                }
            ],
            "name": "Initialized",
            "type": "event"
        },
        {
            "anonymous": false,
            "inputs": [
                {
                    "indexed": true,
                    "internalType": "uint256",
                    "name": "raceId",
                    "type": "uint256"
                },
                {
                    "indexed": true,
                    "internalType": "uint256",
                    "name": "lap",
                    "type": "uint256"
                },
                {
                    "indexed": false,
                    "internalType": "enum DCRRaceFaucet.BetStatus",
                    "name": "status",
                    "type": "uint8"
                }
            ],
            "name": "LapBetStatusChange",
            "type": "event"
        },
        {
            "anonymous": false,
            "inputs": [
                {
                    "indexed": true,
                    "internalType": "uint256",
                    "name": "raceId",
                    "type": "uint256"
                },
                {
                    "indexed": false,
                    "internalType": "uint256",
                    "name": "lap",
                    "type": "uint256"
                },
                {
                    "indexed": false,
                    "internalType": "uint256",
                    "name": "first",
                    "type": "uint256"
                },
                {
                    "indexed": false,
                    "internalType": "uint256",
                    "name": "second",
                    "type": "uint256"
                },
                {
                    "indexed": false,
                    "internalType": "uint256",
                    "name": "third",
                    "type": "uint256"
                }
            ],
            "name": "LapFinished",
            "type": "event"
        },
        {
            "anonymous": false,
            "inputs": [
                {
                    "indexed": true,
                    "internalType": "uint256",
                    "name": "raceId",
                    "type": "uint256"
                },
                {
                    "indexed": false,
                    "internalType": "uint256",
                    "name": "lap",
                    "type": "uint256"
                },
                {
                    "indexed": false,
                    "internalType": "address",
                    "name": "participant",
                    "type": "address"
                },
                {
                    "indexed": false,
                    "internalType": "uint256",
                    "name": "amount",
                    "type": "uint256"
                }
            ],
            "name": "LapRewardClaimed",
            "type": "event"
        },
        {
            "anonymous": false,
            "inputs": [
                {
                    "indexed": true,
                    "internalType": "address",
                    "name": "previousOwner",
                    "type": "address"
                },
                {
                    "indexed": true,
                    "internalType": "address",
                    "name": "newOwner",
                    "type": "address"
                }
            ],
            "name": "OwnershipTransferred",
            "type": "event"
        },
        {
            "anonymous": false,
            "inputs": [
                {
                    "indexed": true,
                    "internalType": "uint256",
                    "name": "raceId",
                    "type": "uint256"
                },
                {
                    "indexed": false,
                    "internalType": "enum DCRRaceFaucet.BetStatus",
                    "name": "status",
                    "type": "uint8"
                }
            ],
            "name": "RaceBetStatusChange",
            "type": "event"
        },
        {
            "anonymous": false,
            "inputs": [
                {
                    "indexed": true,
                    "internalType": "uint256",
                    "name": "id",
                    "type": "uint256"
                },
                {
                    "components": [
                        {
                            "internalType": "string",
                            "name": "name",
                            "type": "string"
                        },
                        {
                            "internalType": "uint256",
                            "name": "laps",
                            "type": "uint256"
                        },
                        {
                            "internalType": "uint256",
                            "name": "id",
                            "type": "uint256"
                        },
                        {
                            "internalType": "uint256",
                            "name": "startTime",
                            "type": "uint256"
                        },
                        {
                            "internalType": "uint256",
                            "name": "finishTime",
                            "type": "uint256"
                        },
                        {
                            "internalType": "uint256",
                            "name": "currentLap",
                            "type": "uint256"
                        },
                        {
                            "internalType": "enum DCRRaceFaucet.RaceStatus",
                            "name": "status",
                            "type": "uint8"
                        },
                        {
                            "internalType": "enum DCRRaceFaucet.BetStatus",
                            "name": "betStatus",
                            "type": "uint8"
                        },
                        {
                            "internalType": "uint256",
                            "name": "startingTimestamp",
                            "type": "uint256"
                        },
                        {
                            "internalType": "uint256",
                            "name": "minBet",
                            "type": "uint256"
                        },
                        {
                            "internalType": "uint256",
                            "name": "maxBet",
                            "type": "uint256"
                        }
                    ],
                    "indexed": false,
                    "internalType": "struct DCRRaceFaucet.Race",
                    "name": "race",
                    "type": "tuple"
                }
            ],
            "name": "RaceCreated",
            "type": "event"
        },
        {
            "anonymous": false,
            "inputs": [
                {
                    "indexed": true,
                    "internalType": "uint256",
                    "name": "raceId",
                    "type": "uint256"
                },
                {
                    "components": [
                        {
                            "internalType": "string",
                            "name": "name",
                            "type": "string"
                        },
                        {
                            "internalType": "uint256",
                            "name": "laps",
                            "type": "uint256"
                        },
                        {
                            "internalType": "uint256",
                            "name": "id",
                            "type": "uint256"
                        },
                        {
                            "internalType": "uint256",
                            "name": "startTime",
                            "type": "uint256"
                        },
                        {
                            "internalType": "uint256",
                            "name": "finishTime",
                            "type": "uint256"
                        },
                        {
                            "internalType": "uint256",
                            "name": "currentLap",
                            "type": "uint256"
                        },
                        {
                            "internalType": "enum DCRRaceFaucet.RaceStatus",
                            "name": "status",
                            "type": "uint8"
                        },
                        {
                            "internalType": "enum DCRRaceFaucet.BetStatus",
                            "name": "betStatus",
                            "type": "uint8"
                        },
                        {
                            "internalType": "uint256",
                            "name": "startingTimestamp",
                            "type": "uint256"
                        },
                        {
                            "internalType": "uint256",
                            "name": "minBet",
                            "type": "uint256"
                        },
                        {
                            "internalType": "uint256",
                            "name": "maxBet",
                            "type": "uint256"
                        }
                    ],
                    "indexed": false,
                    "internalType": "struct DCRRaceFaucet.Race",
                    "name": "race",
                    "type": "tuple"
                },
                {
                    "indexed": false,
                    "internalType": "uint256[]",
                    "name": "contestantIds",
                    "type": "uint256[]"
                }
            ],
            "name": "RaceCreatedWithContestants",
            "type": "event"
        },
        {
            "anonymous": false,
            "inputs": [
                {
                    "indexed": true,
                    "internalType": "uint256",
                    "name": "id",
                    "type": "uint256"
                }
            ],
            "name": "RaceDeleted",
            "type": "event"
        },
        {
            "anonymous": false,
            "inputs": [
                {
                    "indexed": true,
                    "internalType": "uint256",
                    "name": "raceId",
                    "type": "uint256"
                },
                {
                    "indexed": false,
                    "internalType": "uint256",
                    "name": "winnerId",
                    "type": "uint256"
                }
            ],
            "name": "RaceFinished",
            "type": "event"
        },
        {
            "anonymous": false,
            "inputs": [
                {
                    "indexed": true,
                    "internalType": "uint256",
                    "name": "raceId",
                    "type": "uint256"
                },
                {
                    "indexed": true,
                    "internalType": "uint256",
                    "name": "lap",
                    "type": "uint256"
                }
            ],
            "name": "RaceLapStarted",
            "type": "event"
        },
        {
            "anonymous": false,
            "inputs": [
                {
                    "indexed": true,
                    "internalType": "uint256",
                    "name": "raceId",
                    "type": "uint256"
                },
                {
                    "indexed": false,
                    "internalType": "address",
                    "name": "participant",
                    "type": "address"
                },
                {
                    "indexed": false,
                    "internalType": "uint256",
                    "name": "amount",
                    "type": "uint256"
                }
            ],
            "name": "RaceRewardClaimed",
            "type": "event"
        },
        {
            "anonymous": false,
            "inputs": [
                {
                    "indexed": true,
                    "internalType": "uint256",
                    "name": "raceId",
                    "type": "uint256"
                }
            ],
            "name": "RaceStarted",
            "type": "event"
        },
        {
            "anonymous": false,
            "inputs": [
                {
                    "indexed": true,
                    "internalType": "uint256",
                    "name": "raceId",
                    "type": "uint256"
                },
                {
                    "indexed": false,
                    "internalType": "enum DCRRaceFaucet.RaceStatus",
                    "name": "status",
                    "type": "uint8"
                }
            ],
            "name": "RaceStatusChange",
            "type": "event"
        },
        {
            "anonymous": false,
            "inputs": [
                {
                    "indexed": true,
                    "internalType": "uint256",
                    "name": "id",
                    "type": "uint256"
                },
                {
                    "components": [
                        {
                            "internalType": "string",
                            "name": "name",
                            "type": "string"
                        },
                        {
                            "internalType": "uint256",
                            "name": "laps",
                            "type": "uint256"
                        },
                        {
                            "internalType": "uint256",
                            "name": "id",
                            "type": "uint256"
                        },
                        {
                            "internalType": "uint256",
                            "name": "startTime",
                            "type": "uint256"
                        },
                        {
                            "internalType": "uint256",
                            "name": "finishTime",
                            "type": "uint256"
                        },
                        {
                            "internalType": "uint256",
                            "name": "currentLap",
                            "type": "uint256"
                        },
                        {
                            "internalType": "enum DCRRaceFaucet.RaceStatus",
                            "name": "status",
                            "type": "uint8"
                        },
                        {
                            "internalType": "enum DCRRaceFaucet.BetStatus",
                            "name": "betStatus",
                            "type": "uint8"
                        },
                        {
                            "internalType": "uint256",
                            "name": "startingTimestamp",
                            "type": "uint256"
                        },
                        {
                            "internalType": "uint256",
                            "name": "minBet",
                            "type": "uint256"
                        },
                        {
                            "internalType": "uint256",
                            "name": "maxBet",
                            "type": "uint256"
                        }
                    ],
                    "indexed": false,
                    "internalType": "struct DCRRaceFaucet.Race",
                    "name": "race",
                    "type": "tuple"
                }
            ],
            "name": "RaceUpdated",
            "type": "event"
        },
        {
            "inputs": [
                {
                    "internalType": "string",
                    "name": "name",
                    "type": "string"
                },
                {
                    "internalType": "string",
                    "name": "desc",
                    "type": "string"
                },
                {
                    "internalType": "string",
                    "name": "pic",
                    "type": "string"
                }
            ],
            "name": "addContestant",
            "outputs": [],
            "stateMutability": "nonpayable",
            "type": "function"
        },
        {
            "inputs": [
                {
                    "internalType": "uint256",
                    "name": "contestantId",
                    "type": "uint256"
                },
                {
                    "internalType": "uint256",
                    "name": "raceId",
                    "type": "uint256"
                },
                {
                    "internalType": "bool",
                    "name": "status",
                    "type": "bool"
                }
            ],
            "name": "addContestantToRace",
            "outputs": [],
            "stateMutability": "nonpayable",
            "type": "function"
        },
        {
            "inputs": [
                {
                    "internalType": "uint256[]",
                    "name": "oldContestantIds",
                    "type": "uint256[]"
                },
                {
                    "internalType": "uint256[]",
                    "name": "newContestantIds",
                    "type": "uint256[]"
                },
                {
                    "internalType": "uint256",
                    "name": "raceId",
                    "type": "uint256"
                }
            ],
            "name": "addContestantToRaceBatch",
            "outputs": [],
            "stateMutability": "nonpayable",
            "type": "function"
        },
        {
            "inputs": [
                {
                    "internalType": "address",
                    "name": "",
                    "type": "address"
                }
            ],
            "name": "admins",
            "outputs": [
                {
                    "internalType": "bool",
                    "name": "",
                    "type": "bool"
                }
            ],
            "stateMutability": "view",
            "type": "function"
        },
        {
            "inputs": [
                {
                    "internalType": "uint256",
                    "name": "raceId",
                    "type": "uint256"
                },
                {
                    "internalType": "uint256",
                    "name": "lap",
                    "type": "uint256"
                },
                {
                    "internalType": "uint256",
                    "name": "contestantId",
                    "type": "uint256"
                }
            ],
            "name": "claimLapResult",
            "outputs": [],
            "stateMutability": "nonpayable",
            "type": "function"
        },
        {
            "inputs": [
                {
                    "internalType": "uint256",
                    "name": "raceId",
                    "type": "uint256"
                }
            ],
            "name": "claimRaceResult",
            "outputs": [],
            "stateMutability": "nonpayable",
            "type": "function"
        },
        {
            "inputs": [
                {
                    "internalType": "uint256",
                    "name": "",
                    "type": "uint256"
                }
            ],
            "name": "contestants",
            "outputs": [
                {
                    "internalType": "string",
                    "name": "name",
                    "type": "string"
                },
                {
                    "internalType": "string",
                    "name": "description",
                    "type": "string"
                },
                {
                    "internalType": "uint256",
                    "name": "id",
                    "type": "uint256"
                },
                {
                    "internalType": "string",
                    "name": "pic",
                    "type": "string"
                }
            ],
            "stateMutability": "view",
            "type": "function"
        },
        {
            "inputs": [
                {
                    "internalType": "string",
                    "name": "name",
                    "type": "string"
                },
                {
                    "internalType": "uint256",
                    "name": "laps",
                    "type": "uint256"
                },
                {
                    "internalType": "uint256",
                    "name": "startingTimestamp",
                    "type": "uint256"
                },
                {
                    "internalType": "uint256",
                    "name": "minBet",
                    "type": "uint256"
                },
                {
                    "internalType": "uint256",
                    "name": "maxBet",
                    "type": "uint256"
                }
            ],
            "name": "createRace",
            "outputs": [],
            "stateMutability": "nonpayable",
            "type": "function"
        },
        {
            "inputs": [
                {
                    "internalType": "string",
                    "name": "name",
                    "type": "string"
                },
                {
                    "internalType": "uint256",
                    "name": "laps",
                    "type": "uint256"
                },
                {
                    "internalType": "uint256",
                    "name": "minBet",
                    "type": "uint256"
                },
                {
                    "internalType": "uint256",
                    "name": "maxBet",
                    "type": "uint256"
                },
                {
                    "internalType": "uint256",
                    "name": "startingTimestamp",
                    "type": "uint256"
                },
                {
                    "internalType": "uint256[]",
                    "name": "newContestantIds",
                    "type": "uint256[]"
                }
            ],
            "name": "createRaceWithContestants",
            "outputs": [],
            "stateMutability": "nonpayable",
            "type": "function"
        },
        {
            "inputs": [],
            "name": "currentBetId",
            "outputs": [
                {
                    "internalType": "uint256",
                    "name": "",
                    "type": "uint256"
                }
            ],
            "stateMutability": "view",
            "type": "function"
        },
        {
            "inputs": [],
            "name": "currentContestantId",
            "outputs": [
                {
                    "internalType": "uint256",
                    "name": "",
                    "type": "uint256"
                }
            ],
            "stateMutability": "view",
            "type": "function"
        },
        {
            "inputs": [],
            "name": "currentRaceId",
            "outputs": [
                {
                    "internalType": "uint256",
                    "name": "",
                    "type": "uint256"
                }
            ],
            "stateMutability": "view",
            "type": "function"
        },
        {
            "inputs": [
                {
                    "internalType": "uint256",
                    "name": "betId",
                    "type": "uint256"
                }
            ],
            "name": "deleteBet",
            "outputs": [],
            "stateMutability": "nonpayable",
            "type": "function"
        },
        {
            "inputs": [
                {
                    "internalType": "uint256",
                    "name": "contestantId",
                    "type": "uint256"
                }
            ],
            "name": "deleteContestant",
            "outputs": [],
            "stateMutability": "nonpayable",
            "type": "function"
        },
        {
            "inputs": [
                {
                    "internalType": "uint256",
                    "name": "raceId",
                    "type": "uint256"
                }
            ],
            "name": "deleteRace",
            "outputs": [],
            "stateMutability": "nonpayable",
            "type": "function"
        },
        {
            "inputs": [
                {
                    "internalType": "uint256",
                    "name": "raceId",
                    "type": "uint256"
                },
                {
                    "internalType": "uint256",
                    "name": "lap",
                    "type": "uint256"
                },
                {
                    "internalType": "address",
                    "name": "participant",
                    "type": "address"
                },
                {
                    "internalType": "uint256",
                    "name": "contestantId",
                    "type": "uint256"
                }
            ],
            "name": "getLapResult",
            "outputs": [
                {
                    "internalType": "uint256",
                    "name": "",
                    "type": "uint256"
                }
            ],
            "stateMutability": "view",
            "type": "function"
        },
        {
            "inputs": [
                {
                    "internalType": "uint256",
                    "name": "raceId",
                    "type": "uint256"
                },
                {
                    "internalType": "address",
                    "name": "participant",
                    "type": "address"
                }
            ],
            "name": "getRaceResult",
            "outputs": [
                {
                    "internalType": "uint256",
                    "name": "",
                    "type": "uint256"
                }
            ],
            "stateMutability": "view",
            "type": "function"
        },
        {
            "inputs": [],
            "name": "initialize",
            "outputs": [],
            "stateMutability": "nonpayable",
            "type": "function"
        },
        {
            "inputs": [
                {
                    "internalType": "uint256",
                    "name": "",
                    "type": "uint256"
                },
                {
                    "internalType": "uint256",
                    "name": "",
                    "type": "uint256"
                }
            ],
            "name": "lapBetStatus",
            "outputs": [
                {
                    "internalType": "enum DCRRaceFaucet.BetStatus",
                    "name": "",
                    "type": "uint8"
                }
            ],
            "stateMutability": "view",
            "type": "function"
        },
        {
            "inputs": [
                {
                    "internalType": "uint256",
                    "name": "",
                    "type": "uint256"
                },
                {
                    "internalType": "uint256",
                    "name": "",
                    "type": "uint256"
                },
                {
                    "internalType": "uint256",
                    "name": "",
                    "type": "uint256"
                }
            ],
            "name": "lapBetsCount",
            "outputs": [
                {
                    "internalType": "uint256",
                    "name": "",
                    "type": "uint256"
                }
            ],
            "stateMutability": "view",
            "type": "function"
        },
        {
            "inputs": [
                {
                    "internalType": "uint256",
                    "name": "",
                    "type": "uint256"
                },
                {
                    "internalType": "address",
                    "name": "",
                    "type": "address"
                },
                {
                    "internalType": "uint256",
                    "name": "",
                    "type": "uint256"
                },
                {
                    "internalType": "uint256",
                    "name": "",
                    "type": "uint256"
                }
            ],
            "name": "lapContestantBets",
            "outputs": [
                {
                    "internalType": "uint256",
                    "name": "id",
                    "type": "uint256"
                },
                {
                    "internalType": "address",
                    "name": "bettor",
                    "type": "address"
                },
                {
                    "internalType": "uint256",
                    "name": "raceId",
                    "type": "uint256"
                },
                {
                    "internalType": "uint256",
                    "name": "lap",
                    "type": "uint256"
                },
                {
                    "internalType": "uint256",
                    "name": "amount",
                    "type": "uint256"
                },
                {
                    "internalType": "uint256",
                    "name": "contestantId",
                    "type": "uint256"
                },
                {
                    "internalType": "enum DCRRaceFaucet.BetResult",
                    "name": "result",
                    "type": "uint8"
                },
                {
                    "internalType": "enum DCRRaceFaucet.BetType",
                    "name": "betType",
                    "type": "uint8"
                },
                {
                    "internalType": "bool",
                    "name": "claimed",
                    "type": "bool"
                }
            ],
            "stateMutability": "view",
            "type": "function"
        },
        {
            "inputs": [
                {
                    "internalType": "uint256",
                    "name": "",
                    "type": "uint256"
                },
                {
                    "internalType": "uint256",
                    "name": "",
                    "type": "uint256"
                },
                {
                    "internalType": "uint256",
                    "name": "",
                    "type": "uint256"
                }
            ],
            "name": "lapContestantPoints",
            "outputs": [
                {
                    "internalType": "uint256",
                    "name": "",
                    "type": "uint256"
                }
            ],
            "stateMutability": "view",
            "type": "function"
        },
        {
            "inputs": [
                {
                    "internalType": "uint256",
                    "name": "",
                    "type": "uint256"
                },
                {
                    "internalType": "uint256",
                    "name": "",
                    "type": "uint256"
                }
            ],
            "name": "lapResults",
            "outputs": [
                {
                    "internalType": "uint256",
                    "name": "raceId",
                    "type": "uint256"
                },
                {
                    "internalType": "uint256",
                    "name": "lap",
                    "type": "uint256"
                },
                {
                    "internalType": "uint256",
                    "name": "firstPlaceContestantId",
                    "type": "uint256"
                },
                {
                    "internalType": "uint256",
                    "name": "secondPlaceContestantId",
                    "type": "uint256"
                },
                {
                    "internalType": "uint256",
                    "name": "thirdPlaceContestantId",
                    "type": "uint256"
                }
            ],
            "stateMutability": "view",
            "type": "function"
        },
        {
            "inputs": [
                {
                    "internalType": "uint256",
                    "name": "raceId",
                    "type": "uint256"
                },
                {
                    "internalType": "uint256",
                    "name": "contestantId",
                    "type": "uint256"
                },
                {
                    "internalType": "uint256",
                    "name": "amount",
                    "type": "uint256"
                },
                {
                    "internalType": "bool",
                    "name": "fullRace",
                    "type": "bool"
                },
                {
                    "internalType": "uint256",
                    "name": "lap",
                    "type": "uint256"
                }
            ],
            "name": "makeBet",
            "outputs": [],
            "stateMutability": "nonpayable",
            "type": "function"
        },
        {
            "inputs": [],
            "name": "owner",
            "outputs": [
                {
                    "internalType": "address",
                    "name": "",
                    "type": "address"
                }
            ],
            "stateMutability": "view",
            "type": "function"
        },
        {
            "inputs": [
                {
                    "internalType": "uint256",
                    "name": "",
                    "type": "uint256"
                },
                {
                    "internalType": "address",
                    "name": "",
                    "type": "address"
                }
            ],
            "name": "raceBets",
            "outputs": [
                {
                    "internalType": "uint256",
                    "name": "id",
                    "type": "uint256"
                },
                {
                    "internalType": "address",
                    "name": "bettor",
                    "type": "address"
                },
                {
                    "internalType": "uint256",
                    "name": "raceId",
                    "type": "uint256"
                },
                {
                    "internalType": "uint256",
                    "name": "lap",
                    "type": "uint256"
                },
                {
                    "internalType": "uint256",
                    "name": "amount",
                    "type": "uint256"
                },
                {
                    "internalType": "uint256",
                    "name": "contestantId",
                    "type": "uint256"
                },
                {
                    "internalType": "enum DCRRaceFaucet.BetResult",
                    "name": "result",
                    "type": "uint8"
                },
                {
                    "internalType": "enum DCRRaceFaucet.BetType",
                    "name": "betType",
                    "type": "uint8"
                },
                {
                    "internalType": "bool",
                    "name": "claimed",
                    "type": "bool"
                }
            ],
            "stateMutability": "view",
            "type": "function"
        },
        {
            "inputs": [
                {
                    "internalType": "uint256",
                    "name": "",
                    "type": "uint256"
                },
                {
                    "internalType": "uint256",
                    "name": "",
                    "type": "uint256"
                }
            ],
            "name": "raceBetsCount",
            "outputs": [
                {
                    "internalType": "uint256",
                    "name": "",
                    "type": "uint256"
                }
            ],
            "stateMutability": "view",
            "type": "function"
        },
        {
            "inputs": [
                {
                    "internalType": "uint256",
                    "name": "",
                    "type": "uint256"
                },
                {
                    "internalType": "uint256",
                    "name": "",
                    "type": "uint256"
                }
            ],
            "name": "raceContestantPoints",
            "outputs": [
                {
                    "internalType": "uint256",
                    "name": "",
                    "type": "uint256"
                }
            ],
            "stateMutability": "view",
            "type": "function"
        },
        {
            "inputs": [
                {
                    "internalType": "uint256",
                    "name": "",
                    "type": "uint256"
                },
                {
                    "internalType": "uint256",
                    "name": "",
                    "type": "uint256"
                }
            ],
            "name": "raceContestants",
            "outputs": [
                {
                    "internalType": "bool",
                    "name": "",
                    "type": "bool"
                }
            ],
            "stateMutability": "view",
            "type": "function"
        },
        {
            "inputs": [
                {
                    "internalType": "uint256",
                    "name": "",
                    "type": "uint256"
                }
            ],
            "name": "raceResults",
            "outputs": [
                {
                    "internalType": "uint256",
                    "name": "raceId",
                    "type": "uint256"
                },
                {
                    "internalType": "uint256",
                    "name": "firstPlaceContestantId",
                    "type": "uint256"
                },
                {
                    "internalType": "uint256",
                    "name": "secondPlaceContestantId",
                    "type": "uint256"
                },
                {
                    "internalType": "uint256",
                    "name": "thirdPlaceContestantId",
                    "type": "uint256"
                },
                {
                    "internalType": "uint256",
                    "name": "winnerPoints",
                    "type": "uint256"
                },
                {
                    "internalType": "bool",
                    "name": "finalResult",
                    "type": "bool"
                }
            ],
            "stateMutability": "view",
            "type": "function"
        },
        {
            "inputs": [
                {
                    "internalType": "uint256",
                    "name": "",
                    "type": "uint256"
                }
            ],
            "name": "races",
            "outputs": [
                {
                    "internalType": "string",
                    "name": "name",
                    "type": "string"
                },
                {
                    "internalType": "uint256",
                    "name": "laps",
                    "type": "uint256"
                },
                {
                    "internalType": "uint256",
                    "name": "id",
                    "type": "uint256"
                },
                {
                    "internalType": "uint256",
                    "name": "startTime",
                    "type": "uint256"
                },
                {
                    "internalType": "uint256",
                    "name": "finishTime",
                    "type": "uint256"
                },
                {
                    "internalType": "uint256",
                    "name": "currentLap",
                    "type": "uint256"
                },
                {
                    "internalType": "enum DCRRaceFaucet.RaceStatus",
                    "name": "status",
                    "type": "uint8"
                },
                {
                    "internalType": "enum DCRRaceFaucet.BetStatus",
                    "name": "betStatus",
                    "type": "uint8"
                },
                {
                    "internalType": "uint256",
                    "name": "startingTimestamp",
                    "type": "uint256"
                },
                {
                    "internalType": "uint256",
                    "name": "minBet",
                    "type": "uint256"
                },
                {
                    "internalType": "uint256",
                    "name": "maxBet",
                    "type": "uint256"
                }
            ],
            "stateMutability": "view",
            "type": "function"
        },
        {
            "inputs": [],
            "name": "renounceOwnership",
            "outputs": [],
            "stateMutability": "nonpayable",
            "type": "function"
        },
        {
            "inputs": [
                {
                    "internalType": "uint256",
                    "name": "raceId",
                    "type": "uint256"
                },
                {
                    "internalType": "uint256",
                    "name": "lap",
                    "type": "uint256"
                },
                {
                    "internalType": "uint256",
                    "name": "first",
                    "type": "uint256"
                },
                {
                    "internalType": "uint256",
                    "name": "second",
                    "type": "uint256"
                },
                {
                    "internalType": "uint256",
                    "name": "third",
                    "type": "uint256"
                }
            ],
            "name": "setLapResult",
            "outputs": [],
            "stateMutability": "nonpayable",
            "type": "function"
        },
        {
            "inputs": [
                {
                    "internalType": "uint8",
                    "name": "first",
                    "type": "uint8"
                },
                {
                    "internalType": "uint8",
                    "name": "second",
                    "type": "uint8"
                },
                {
                    "internalType": "uint8",
                    "name": "third",
                    "type": "uint8"
                }
            ],
            "name": "setPoints",
            "outputs": [],
            "stateMutability": "nonpayable",
            "type": "function"
        },
        {
            "inputs": [
                {
                    "internalType": "uint256",
                    "name": "raceId",
                    "type": "uint256"
                }
            ],
            "name": "setRaceResult",
            "outputs": [],
            "stateMutability": "nonpayable",
            "type": "function"
        },
        {
            "inputs": [
                {
                    "internalType": "uint256",
                    "name": "first",
                    "type": "uint256"
                },
                {
                    "internalType": "uint256",
                    "name": "second",
                    "type": "uint256"
                },
                {
                    "internalType": "uint256",
                    "name": "third",
                    "type": "uint256"
                }
            ],
            "name": "setWinPercents",
            "outputs": [],
            "stateMutability": "nonpayable",
            "type": "function"
        },
        {
            "inputs": [
                {
                    "internalType": "uint256",
                    "name": "raceId",
                    "type": "uint256"
                },
                {
                    "internalType": "uint256",
                    "name": "lap",
                    "type": "uint256"
                }
            ],
            "name": "startLap",
            "outputs": [],
            "stateMutability": "nonpayable",
            "type": "function"
        },
        {
            "inputs": [
                {
                    "internalType": "uint256",
                    "name": "raceId",
                    "type": "uint256"
                }
            ],
            "name": "startRace",
            "outputs": [],
            "stateMutability": "nonpayable",
            "type": "function"
        },
        {
            "inputs": [
                {
                    "internalType": "uint256",
                    "name": "",
                    "type": "uint256"
                },
                {
                    "internalType": "uint256",
                    "name": "",
                    "type": "uint256"
                }
            ],
            "name": "totalLapBet",
            "outputs": [
                {
                    "internalType": "uint256",
                    "name": "",
                    "type": "uint256"
                }
            ],
            "stateMutability": "view",
            "type": "function"
        },
        {
            "inputs": [
                {
                    "internalType": "uint256",
                    "name": "",
                    "type": "uint256"
                },
                {
                    "internalType": "uint256",
                    "name": "",
                    "type": "uint256"
                },
                {
                    "internalType": "uint256",
                    "name": "",
                    "type": "uint256"
                }
            ],
            "name": "totalLapContestantBet",
            "outputs": [
                {
                    "internalType": "uint256",
                    "name": "",
                    "type": "uint256"
                }
            ],
            "stateMutability": "view",
            "type": "function"
        },
        {
            "inputs": [
                {
                    "internalType": "uint256",
                    "name": "",
                    "type": "uint256"
                }
            ],
            "name": "totalRaceBet",
            "outputs": [
                {
                    "internalType": "uint256",
                    "name": "",
                    "type": "uint256"
                }
            ],
            "stateMutability": "view",
            "type": "function"
        },
        {
            "inputs": [
                {
                    "internalType": "uint256",
                    "name": "",
                    "type": "uint256"
                },
                {
                    "internalType": "uint256",
                    "name": "",
                    "type": "uint256"
                }
            ],
            "name": "totalRaceContestantBet",
            "outputs": [
                {
                    "internalType": "uint256",
                    "name": "",
                    "type": "uint256"
                }
            ],
            "stateMutability": "view",
            "type": "function"
        },
        {
            "inputs": [
                {
                    "internalType": "address",
                    "name": "newOwner",
                    "type": "address"
                }
            ],
            "name": "transferOwnership",
            "outputs": [],
            "stateMutability": "nonpayable",
            "type": "function"
        },
        {
            "inputs": [
                {
                    "internalType": "address",
                    "name": "addr",
                    "type": "address"
                },
                {
                    "internalType": "bool",
                    "name": "setAdmin",
                    "type": "bool"
                }
            ],
            "name": "updateAdmin",
            "outputs": [],
            "stateMutability": "nonpayable",
            "type": "function"
        },
        {
            "inputs": [
                {
                    "internalType": "uint256",
                    "name": "contestantId",
                    "type": "uint256"
                },
                {
                    "internalType": "string",
                    "name": "name",
                    "type": "string"
                },
                {
                    "internalType": "string",
                    "name": "desc",
                    "type": "string"
                },
                {
                    "internalType": "string",
                    "name": "pic",
                    "type": "string"
                }
            ],
            "name": "updateContestant",
            "outputs": [],
            "stateMutability": "nonpayable",
            "type": "function"
        },
        {
            "inputs": [
                {
                    "internalType": "uint256",
                    "name": "raceId",
                    "type": "uint256"
                },
                {
                    "internalType": "string",
                    "name": "name",
                    "type": "string"
                },
                {
                    "internalType": "uint256",
                    "name": "laps",
                    "type": "uint256"
                },
                {
                    "internalType": "uint256",
                    "name": "startingTimestamp",
                    "type": "uint256"
                },
                {
                    "internalType": "uint256",
                    "name": "minBet",
                    "type": "uint256"
                },
                {
                    "internalType": "uint256",
                    "name": "maxBet",
                    "type": "uint256"
                }
            ],
            "name": "updateRace",
            "outputs": [],
            "stateMutability": "nonpayable",
            "type": "function"
        },
        {
            "inputs": [
                {
                    "internalType": "uint256",
                    "name": "raceId",
                    "type": "uint256"
                },
                {
                    "internalType": "string",
                    "name": "name",
                    "type": "string"
                },
                {
                    "internalType": "uint256",
                    "name": "laps",
                    "type": "uint256"
                },
                {
                    "internalType": "uint256",
                    "name": "minBet",
                    "type": "uint256"
                },
                {
                    "internalType": "uint256",
                    "name": "maxBet",
                    "type": "uint256"
                },
                {
                    "internalType": "uint256",
                    "name": "startingTimestamp",
                    "type": "uint256"
                },
                {
                    "internalType": "uint256[]",
                    "name": "oldContestantIds",
                    "type": "uint256[]"
                },
                {
                    "internalType": "uint256[]",
                    "name": "newContestantIds",
                    "type": "uint256[]"
                }
            ],
            "name": "updateRaceWithContestants",
            "outputs": [],
            "stateMutability": "nonpayable",
            "type": "function"
        },
        {
            "inputs": [
                {
                    "internalType": "uint256",
                    "name": "",
                    "type": "uint256"
                }
            ],
            "name": "winPercents",
            "outputs": [
                {
                    "internalType": "uint256",
                    "name": "",
                    "type": "uint256"
                }
            ],
            "stateMutability": "view",
            "type": "function"
        }
    ],
    "bytecode": "0x608060405234801561001057600080fd5b50614b52806100206000396000f3fe608060405234801561001057600080fd5b506004361061031e5760003560e01c80637b3dbea8116101a7578063c018643b116100ee578063dfd50f5211610097578063f2fde38b11610071578063f2fde38b14610961578063f367508f14610974578063f67a670e1461098757600080fd5b8063dfd50f5214610922578063e01a6ee114610945578063eb9b744a1461094e57600080fd5b8063cebd3ca1116100c8578063cebd3ca1146108d1578063d17e93d2146108fc578063da510a271461090f57600080fd5b8063c018643b1461084a578063c8434f491461087b578063ce59549c146108a657600080fd5b80639ad9d50111610150578063bb642bb81161012a578063bb642bb814610811578063bebcc40814610824578063bf0603aa1461083757600080fd5b80639ad9d50114610770578063ab76482e14610779578063b76149f5146107fe57600080fd5b80638129fc1c116101815780638129fc1c1461072d57806383e509ea146107355780638da5cb5b1461075557600080fd5b80637b3dbea8146106655780637b89ca53146106785780637bbc469e1461070357600080fd5b80633a9b2bb31161026b57806359647fc6116102145780636673dea9116101ee5780636673dea914610619578063670a6fd91461064a578063715018a61461065d57600080fd5b806359647fc6146105885780635a407e47146105fd5780635b4a9b511461061057600080fd5b8063478ca29111610245578063478ca2911461051c5780634f4de48b1461054a5780635481860d1461057557600080fd5b80633a9b2bb314610466578063429b62e5146104d6578063456246e61461050957600080fd5b80631fa6a9a2116102cd57806326011e28116102a757806326011e281461040f5780632d07d411146104225780632fbaa8191461045357600080fd5b80631fa6a9a2146103c8578063243cf50c146103db57806324d822bf146103fc57600080fd5b806305fcde1c116102fe57806305fcde1c1461038f5780631c8e64e3146103a25780631f536a57146103b557600080fd5b80623652a514610323578062df208514610338578063039a07d41461034b575b600080fd5b610336610331366004613d4e565b61099a565b005b610336610346366004613dd7565b610a30565b610379610359366004613e12565b606b60209081526000928352604080842090915290825290205460ff1681565b6040516103869190613e67565b60405180910390f35b61033661039d366004613e7a565b610d72565b6103366103b0366004613e7a565b610ef1565b6103366103c3366004613e93565b611033565b6103366103d6366004613ebf565b61107d565b6103ee6103e9366004613f94565b6110bc565b604051908152602001610386565b61033661040a366004613e7a565b6111f9565b61033661041d366004613e7a565b61143b565b6103ee610430366004613e93565b607660209081526000938452604080852082529284528284209052825290205481565b6103ee610461366004613fc0565b6114e4565b6104ae610474366004613e12565b606e602090815260009283526040808420909152908252902080546001820154600283015460038401546004909401549293919290919085565b604080519586526020860194909452928401919091526060830152608082015260a001610386565b6104f96104e4366004613ffd565b60706020526000908152604090205460ff1681565b6040519015158152602001610386565b610336610517366004613e93565b611646565b6104f961052a366004613e12565b606a60209081526000928352604080842090915290825290205460ff1681565b6103ee610558366004613e12565b607e60209081526000928352604080842090915290825290205481565b61033661058336600461402d565b611755565b6105ce610596366004613e7a565b606d60205260009081526040902080546001820154600283015460038401546004850154600590950154939492939192909160ff1686565b6040805196875260208701959095529385019290925260608401526080830152151560a082015260c001610386565b61033661060b366004614077565b61187a565b6103ee60685481565b6103ee610627366004613e93565b607f60209081526000938452604080852082529284528284209052825290205481565b6103366106583660046140ba565b6118cc565b6103366118ff565b6103366106733660046140f1565b611913565b6106ee610686366004613f94565b6071602090815260009283526040808420909152908252902080546001820154600283015460038401546004850154600586015460069096015494956001600160a01b03909416949293919290919060ff808216916101008104821691620100009091041689565b60405161038699989796959493929190614193565b610716610711366004613e7a565b6119e2565b6040516103869b9a99989796959493929190614256565b610336611ac8565b6103ee610743366004613e7a565b60736020526000908152604090205481565b6033546040516001600160a01b039091168152602001610386565b6103ee60665481565b6106ee6107873660046142cc565b607d602090815260009485526040808620825293855283852081529184528284209091528252902080546001820154600283015460038401546004850154600586015460069096015494956001600160a01b03909416949293919290919060ff808216916101008104821691620100009091041689565b61033661080c366004614307565b611cd2565b61033661081f366004613e7a565b611d43565b610336610832366004614364565b6121aa565b6103366108453660046143ce565b612290565b6103ee610858366004613e93565b607b60209081526000938452604080852082529284528284209052825290205481565b6103ee610889366004613e12565b607560209081526000928352604080842090915290825290205481565b6103ee6108b4366004613e12565b607a60209081526000928352604080842090915290825290205481565b6103ee6108df366004613e12565b607460209081526000928352604080842090915290825290205481565b6103ee61090a366004613e7a565b612c0c565b61033661091d366004613e12565b612c23565b610935610930366004613e7a565b612eb5565b6040516103869493929190614417565b6103ee60675481565b61033661095c366004614456565b613075565b61033661096f366004613ffd565b61311b565b610336610982366004613e7a565b6131a8565b6103366109953660046144de565b613233565b3360009081526070602052604090205460ff166109b657600080fd5b60006109c5878785888861328d565b60408051600080825260208201909252919250506109e8818484604001516134ce565b81604001517ffb891e49dc33866185ad15a20780d46e4136727ba0c060e0a42530ab08f124048385604051610a1e929190614620565b60405180910390a25050505050505050565b3360009081526070602052604090205460ff16610a4c57600080fd5b6000858152606e602090815260408083208784529091529020805415610ab95760405162461bcd60e51b815260206004820152601f60248201527f596f752063616e74206368616e6765206578697374696e6720726573756c740060448201526064015b60405180910390fd5b6000868152606c6020908152604080832089855560018086018a9055600286018990556003860188905560048601879055606b84528285208a86528452828520805460ff19169091179055607c80548b8652607b85528386208b875285528386208a8752855283862060ff91821690558154898752848720610100909104821690558154888752848720620100009091048216905590548b8652607a85528386208a875290945291842080549194939092169290610b7890849061465b565b9091555050607c546000888152607a602090815260408083208884529091528120805461010090930460ff1692909190610bb390849061465b565b9091555050607c546000888152607a60209081526040808320878452909152812080546201000090930460ff1692909190610bef90849061465b565b90915550506000878152606d602052604090208054610c505760405162461bcd60e51b815260206004820152601f60248201527f5261636520726573756c742073686f756c6420626520696e69746961746564006044820152606401610ab0565b60048101546000898152607a602090815260408083208a84529091529020541115610c9c576000888152607a602090815260408083208984529091529020546004820155600181018690555b60408051888152602081018890529081018690526060810185905288907fe523e6550e15c0014226b96458e206bb3f030b1c6f87ea4610889f2f59a67a6b9060800160405180910390a286887fa9f7a7048efea37c84d82026bef73e193bab1aa80a6de3e1f14839c225c01d986001604051610d189190613e67565b60405180910390a36000888152606b6020526040812081610d3a8a600161465b565b81526020810191909152604001600020805460ff191660018381811115610d6357610d63613e34565b02179055505050505050505050565b3360009081526070602052604090205460ff16610d8e57600080fd5b6000818152606d602052604090208054610dea5760405162461bcd60e51b815260206004820152601f60248201527f5261636520726573756c742073686f756c6420626520696e69746961746564006044820152606401610ab0565b6005808201805460ff191660019081179091556000848152606c602052604090209081015491810154909114610e625760405162461bcd60e51b815260206004820152601760248201527f52616365206c61702073686f756c64206265206c6173740000000000000000006044820152606401610ab0565b60068101805461ffff19166101031790554260048201556001820154604080519182525184917fd3e8ecef5b46e84f11a8481a5fdf9fd1c095079cc27773885f3fc9389d7757b1919081900360200190a2827f81cc51d03f2329809265bc7abd63cc8a2af256dfc54d738c3fb3d56d203d2a2c6003604051610ee49190614673565b60405180910390a2505050565b60008181526071602090815260408083203384529091529020600681015462010000900460ff1615610f655760405162461bcd60e51b815260206004820152601660248201527f52657761726420616c726561647920636c61696d6564000000000000000000006044820152606401610ab0565b6000610f7183336110bc565b60068301805462ff000019166201000017905560695460405163a9059cbb60e01b8152336004820152602481018390529192506001600160a01b03169063a9059cbb906044016020604051808303816000875af1158015610fd6573d6000803e3d6000fd5b505050506040513d601f19601f82011682018060405250810190610ffa9190614681565b50604080513381526020810183905284917f83e6a7870bef47cce968225f3e83179b3b8608e0754b4e5e70d76da2c2be2c289101610ee4565b3360009081526070602052604090205460ff1661104f57600080fd5b6040805160608101825284815260208101849052908101829052611077906077906003613aec565b50505050565b3360009081526070602052604090205460ff1661109957600080fd5b6110a78888888689896121aa565b6110b282828a613233565b5050505050505050565b6000828152606d60205260408120600181015461111b5760405162461bcd60e51b815260206004820152601860248201527f5261636520726573756c747320756e617661696c61626c6500000000000000006044820152606401610ab0565b60008481526071602090815260408083206001600160a01b03871684529091529020600481015461118e5760405162461bcd60e51b815260206004820152601660248201527f4265742077617320776974686f757420616d6f756e74000000000000000000006044820152606401610ab0565b6000858152606c60209081526040808320607e83528184206005860154808652908452828520548a86526073909452919093205460018601549091036111e9576111dd818386600401546136ef565b955050505050506111f3565b6000955050505050505b92915050565b3360009081526070602052604090205460ff1661121557600080fd5b6000818152606c6020526040902060028101546112665760405162461bcd60e51b815260206004820152600f60248201526e52616365206e6f742065786973747360881b6044820152606401610ab0565b60068101805461ffff1916610102179055426003820155600160058083018290556000848152606b602090815260408083208584528252808320805460ff199081169096179055868352606d90915280822086815592830180549094169093559151909184917fd8a537561d247cabc83980738b2fd3771513f9b3a4b696b3fead967d36efe7da9190a260405160019084907f8063c156253467da0af28ccd7b69bd7bd5cfc241089d81839b0e05204d80113590600090a3827ff82e9dfcd7d107013a83acfc48f9ccdff60daad3a19ce2eb74fcee49cd1d8968600160405161134f9190613e67565b60405180910390a2827f81cc51d03f2329809265bc7abd63cc8a2af256dfc54d738c3fb3d56d203d2a2c60026040516113889190614673565b60405180910390a26001837fa9f7a7048efea37c84d82026bef73e193bab1aa80a6de3e1f14839c225c01d9860016040516113c39190613e67565b60405180910390a3600182600101541115611436576002837fa9f7a7048efea37c84d82026bef73e193bab1aa80a6de3e1f14839c225c01d98600060405161140b9190613e67565b60405180910390a36000838152606b60209081526040808320600284529091529020805460ff191690555b505050565b3360009081526070602052604090205460ff1661145757600080fd5b6000818152606c60205260408120906114708282613b2a565b506000600182018190556002820181905560038201819055600482018190556005820181905560068201805461ffff191690556007820181905560088201819055600990910181905560405182917f73621c760ad0f95250ecb5a7d1d7255a22e830dd70fcb48c0802452bd7d2550791a250565b6000848152606e602090815260408083208684529091528120600281015461154e5760405162461bcd60e51b815260206004820152601760248201527f4c617020726573756c747320756e617661696c61626c650000000000000000006044820152606401610ab0565b6000868152607d602090815260408083206001600160a01b038816845282528083208884528252808320868452909152902060048101546115d15760405162461bcd60e51b815260206004820152601660248201527f4265742077617320776974686f757420616d6f756e74000000000000000000006044820152606401610ab0565b6000878152607f6020908152604080832089845282528083206005850154808552908352818420548b8552607484528285208b865290935292205460028501549192909190036116355761162a818385600401546136ef565b94505050505061163e565b60009450505050505b949350505050565b6000838152607d60209081526040808320338085529083528184208685528352818420858552909252822091906116819086908690866114e4565b60068301805462ff000019166201000017905560695460405163a9059cbb60e01b8152336004820152602481018390529192506001600160a01b03169063a9059cbb906044016020604051808303816000875af11580156116e6573d6000803e3d6000fd5b505050506040513d601f19601f8201168201806040525081019061170a9190614681565b506040805185815233602082015290810182905285907fcf712fb3f8dc6a43efb2dbf283f645b91fbdef08ce9ba34d1109c26d03a66cb5906060015b60405180910390a25050505050565b3360009081526070602052604090205460ff1661177157600080fd5b6000838152606f60205260409020600201546117c75760405162461bcd60e51b8152602060048201526015602482015274436f6e74657374616e74206e6f742065786973747360581b6044820152606401610ab0565b6000828152606c60205260409020600201546118175760405162461bcd60e51b815260206004820152600f60248201526e52616365206e6f742065786973747360881b6044820152606401610ab0565b6000828152606a60209081526040808320868452825291829020805460ff19168415159081179091559151918252849184917f402aab16a3f9834737f09b58044d0dc09ed076aec77d61c06f98ef645c3f492291015b60405180910390a3505050565b3360009081526070602052604090205460ff1661189657600080fd5b607c805460ff94851661ffff1990911617610100938516939093029290921762ff00001916620100009190931602919091179055565b6118d4613710565b6001600160a01b03919091166000908152607060205260409020805460ff1916911515919091179055565b611907613710565b611911600061376a565b565b3360009081526070602052604090205460ff1661192f57600080fd5b6000848152606f60205260409020600281015485146119885760405162461bcd60e51b8152602060048201526015602482015274436f6e74657374616e74206e6f742065786973747360581b6044820152606401610ab0565b806119938582614726565b50600181016119a28482614726565b50600381016119b18382614726565b50847fe9e004b10ecbceceefd0d414121d65fb18eeebe3b6e8884770c7b5bc9d1ba42b826040516117469190614863565b606c602052600090815260409020805481906119fd9061469e565b80601f0160208091040260200160405190810160405280929190818152602001828054611a299061469e565b8015611a765780601f10611a4b57610100808354040283529160200191611a76565b820191906000526020600020905b815481529060010190602001808311611a5957829003601f168201915b50505060018401546002850154600386015460048701546005880154600689015460078a015460088b01546009909b0154999a96999598509396509194909360ff80841694610100909404169291908b565b600054610100900460ff1615808015611ae85750600054600160ff909116105b80611b025750303b158015611b02575060005460ff166001145b611b745760405162461bcd60e51b815260206004820152602e60248201527f496e697469616c697a61626c653a20636f6e747261637420697320616c72656160448201527f647920696e697469616c697a65640000000000000000000000000000000000006064820152608401610ab0565b6000805460ff191660011790558015611b97576000805461ff0019166101001790555b611b9f6137bc565b69d3c21bcecceda10000006065556001606681905560678190556068819055336000908152607060205260408120805460ff19908116841790915573b844dee35883565cca2147424501693b3cd1a7979091527f9ad9faf5f0072e742095c245c337db4fe254708edb600eea0a3ed6d12a1a61ab80549091169091179055606980546001600160a01b0319167330a7f3f76e922d0a9a60ab459d4e59c73a8b020b179055611c4b61382f565b604080516060810182526041815260196020820152600591810191909152611c77906077906003613b64565b50607c805462ffffff1916620103051790558015611ccf576000805461ff0019169055604051600181527f7f26b83ff96e1f2b6a682f133852f6798a09c465da95921460cefb38474024989060200160405180910390a15b50565b3360009081526070602052604090205460ff16611cee57600080fd5b6000611cfd868686868661328d565b905080604001517fe94d1571a5bc7cc8b2617d52ecc69486d570b2c3f16f3e4b87f084a0b93d614982604051611d3391906148bb565b60405180910390a2505050505050565b3360009081526070602052604090205460ff16611d5f57600080fd5b60008181526072602052604090208054611dbb5760405162461bcd60e51b815260206004820152600e60248201527f426574206e6f74206578697374730000000000000000000000000000000000006044820152606401610ab0565b60016006820154610100900460ff166001811115611ddb57611ddb613e34565b03611fa3576004810154600282015460009081526074602090815260408083206003860154845290915281208054909190611e179084906148ce565b909155505060695460048281015460405163a9059cbb60e01b8152339281019290925260248201526001600160a01b039091169063a9059cbb906044016020604051808303816000875af1158015611e73573d6000803e3d6000fd5b505050506040513d601f19601f82011682018060405250810190611e979190614681565b5060028101546000908152607660209081526040808320600385015484528252808320600585015484529091528120805491611ed2836148e5565b9091555050600481015460028201546000908152607f602090815260408083206003860154845282528083206005860154845290915281208054909190611f1a9084906148ce565b90915550506002808201546000908152607d602090815260408083206001808701546001600160a01b0316855290835281842060038088015486529084528285206005808901548752945291842084815590810180546001600160a01b0319169055938401839055830182905560048301829055820155600601805462ffffff19169055612122565b6004810154600282015460009081526073602052604081208054909190611fcb9084906148ce565b9091555050600481015460028201546000908152607e6020908152604080832060058601548452909152812080549091906120079084906148ce565b909155505060695460048281015460405163a9059cbb60e01b8152339281019290925260248201526001600160a01b039091169063a9059cbb906044016020604051808303816000875af1158015612063573d6000803e3d6000fd5b505050506040513d601f19601f820116820180604052508101906120879190614681565b50600281015460009081526075602090815260408083206005850154845290915281208054916120b6836148e5565b909155505060028082015460009081526071602090815260408083206001808701546001600160a01b031685529252822082815590810180546001600160a01b031916905591820181905560038201819055600482018190556005820155600601805462ffffff191690555b817f249a0057aa29737c2c2e7c235bf9fe93d4c32de9ca0aef52658a05d34043c5118260405161215291906148fc565b60405180910390a25060009081526072602052604081208181556001810180546001600160a01b03191690556002810182905560038101829055600481018290556005810191909155600601805462ffffff19169055565b3360009081526070602052604090205460ff166121c657600080fd5b6000868152606c60205260409020600281015487146122195760405162461bcd60e51b815260206004820152600f60248201526e52616365206e6f742065786973747360881b6044820152606401610ab0565b806122248782614726565b506001810185905560068101805460ff1916905560078101849055600881018390556009810182905560405187907f6201db8bebc47b4896bd54e958cda85082de3b671daad937b45cde06bd59d0aa9061227f908490614985565b60405180910390a250505050505050565b6065548311156122e25760405162461bcd60e51b815260206004820181905260248201527f616d6f756e742073686f756c64206e6f7420657863656564206d6178206265746044820152606401610ab0565b81806122ee5750600081115b61233a5760405162461bcd60e51b815260206004820152600b60248201527f496e76616c6964206c61700000000000000000000000000000000000000000006044820152606401610ab0565b6069546040517f23b872dd000000000000000000000000000000000000000000000000000000008152336004820152306024820152604481018590526001600160a01b03909116906323b872dd906064016020604051808303816000875af11580156123aa573d6000803e3d6000fd5b505050506040513d601f19601f820116820180604052508101906123ce9190614681565b506000858152606c60205260409020600281015486146124225760405162461bcd60e51b815260206004820152600f60248201526e52616365206e6f742065786973747360881b6044820152606401610ab0565b8060080154841015801561243a575080600901548411155b6124ac5760405162461bcd60e51b815260206004820152602160248201527f596f757220626574206973206f7574206f662072657175697265642072616e6760448201527f65000000000000000000000000000000000000000000000000000000000000006064820152608401610ab0565b6000858152606f60205260409020600281015486146125055760405162461bcd60e51b8152602060048201526015602482015274436f6e74657374616e74206e6f742065786973747360581b6044820152606401610ab0565b600060686000815461251690614a24565b918290555060008181526072602052604090208181556001810180546001600160a01b0319163317905560048101889055600281018a905560058101899055909150851561281f576000600685015460ff16600381111561257957612579613e34565b146125c65760405162461bcd60e51b815260206004820152601860248201527f52616365206d757374206e6f74206265206f6e676f696e6700000000000000006044820152606401610ab0565b60006006850154610100900460ff1660018111156125e6576125e6613e34565b146126335760405162461bcd60e51b815260206004820152601960248201527f42657473206f6e2072616365206d757374206265206f70656e000000000000006044820152606401610ab0565b60008981526071602090815260408083203384529091529020541561269a5760405162461bcd60e51b815260206004820181905260248201527f596f757220626574206f6e207261636520616c726561647920637265617465646044820152606401610ab0565b6006818101805461ff001916815560008b815260716020908152604080832033845290915290208354815560018085015482820180546001600160a01b0319166001600160a01b0390921691909117905560028086015481840155600380870154908401556004808701549084015560058087015490840155925493820180548695939460ff90941693919260ff1990911691849081111561273e5761273e613e34565b0217905550600682810154908201805460ff61010093849004169261ff00199091169083600181111561277357612773613e34565b02179055506006918201549101805462ff00001916620100009283900460ff161515909202919091179055600089815260736020526040812080548992906127bc90849061465b565b909155505060008981526075602090815260408083208b845290915281208054916127e683614a24565b90915550506000898152607e602090815260408083208b84529091528120805489929061281490849061465b565b90915550612bc99050565b6000600685015460ff16600381111561283a5761283a613e34565b148061285e57506002600685015460ff16600381111561285c5761285c613e34565b145b6128aa5760405162461bcd60e51b815260206004820152601b60248201527f5261636520626574732063616e206e6f7420626520636c6f73656400000000006044820152606401610ab0565b84846001015410156128fe5760405162461bcd60e51b815260206004820152601b60248201527f596f752063616e7420626574206f6e20696e76616c6964206c617000000000006044820152606401610ab0565b6000898152606b6020908152604080832088845290915281205460ff16600181111561292c5761292c613e34565b146129795760405162461bcd60e51b815260206004820152601860248201527f42657473206f6e206c6170206d757374206265206f70656e00000000000000006044820152606401610ab0565b6000898152607d60209081526040808320338452825280832088845282528083208b845290915290205415612a165760405162461bcd60e51b815260206004820152602e60248201527f596f757220626574206f6e206c617020616e6420636f6e74657374616e74206160448201527f6c726561647920637265617465640000000000000000000000000000000000006064820152608401610ab0565b6006818101805461ff001916610100178155600380840188815560008d8152607d6020908152604080832033845282528083208c845282528083208f845290915290208554815560018087015482820180546001600160a01b0319166001600160a01b0390921691909117905560028088015481840155925493820193909355600480870154908201556005808701549082015592549383018054869560ff1693919260ff1990911691908490811115612ad257612ad2613e34565b0217905550600682810154908201805460ff61010093849004169261ff001990911690836001811115612b0757612b07613e34565b02179055506006918201549101805462ff00001916620100009283900460ff161515909202919091179055600089815260746020908152604080832088845290915281208054899290612b5b90849061465b565b90915550506000898152607f6020908152604080832088845282528083208b845290915281208054899290612b9190849061465b565b9091555050600089815260766020908152604080832088845282528083208b84529091528120805491612bc383614a24565b91905055505b817fe6c8fd3c78e0300fb49eaf21f4b790ce70a502dc66b6f0a158da865678e79fcb82604051612bf991906148fc565b60405180910390a2505050505050505050565b60778160038110612c1c57600080fd5b0154905081565b3360009081526070602052604090205460ff16612c3f57600080fd5b6000828152606c602052604090206002810154612c905760405162461bcd60e51b815260206004820152600f60248201526e52616365206e6f742065786973747360881b6044820152606401610ab0565b8181600101541015612ce45760405162461bcd60e51b815260206004820152600d60248201527f57726f6e67204c6170204e756d000000000000000000000000000000000000006044820152606401610ab0565b60018211612d345760405162461bcd60e51b815260206004820152601760248201527f4c61702073686f756c64206265206e65787420746f20310000000000000000006044820152606401610ab0565b6002600682015460ff166003811115612d4f57612d4f613e34565b14612d9c5760405162461bcd60e51b815260206004820152601660248201527f526163652073686f756c64206265206f6e676f696e67000000000000000000006044820152606401610ab0565b426003820155600581018290556000838152606b60209081526040808320858452909152808220805460ff1916600117905551839185917f8063c156253467da0af28ccd7b69bd7bd5cfc241089d81839b0e05204d8011359190a381837fa9f7a7048efea37c84d82026bef73e193bab1aa80a6de3e1f14839c225c01d986001604051612e299190613e67565b60405180910390a36000838152606b6020526040812081612e4b85600161465b565b81526020810191909152604001600020805460ff191660018381811115612e7457612e74613e34565b0217905550612e8482600161465b565b837fa9f7a7048efea37c84d82026bef73e193bab1aa80a6de3e1f14839c225c01d98600060405161186d9190613e67565b606f60205260009081526040902080548190612ed09061469e565b80601f0160208091040260200160405190810160405280929190818152602001828054612efc9061469e565b8015612f495780601f10612f1e57610100808354040283529160200191612f49565b820191906000526020600020905b815481529060010190602001808311612f2c57829003601f168201915b505050505090806001018054612f5e9061469e565b80601f0160208091040260200160405190810160405280929190818152602001828054612f8a9061469e565b8015612fd75780601f10612fac57610100808354040283529160200191612fd7565b820191906000526020600020905b815481529060010190602001808311612fba57829003601f168201915b505050505090806002015490806003018054612ff29061469e565b80601f016020809104026020016040519081016040528092919081815260200182805461301e9061469e565b801561306b5780601f106130405761010080835404028352916020019161306b565b820191906000526020600020905b81548152906001019060200180831161304e57829003601f168201915b5050505050905084565b3360009081526070602052604090205460ff1661309157600080fd5b60006067600081546130a290614a24565b91829055506000818152606f60205260409020909150806130c38682614726565b50600181016130d28582614726565b50600381016130e18482614726565b50818160020181905550817f6698b1435889bbae26e1aa2ef6de017995da80a300aa1148135b671a57650b4a826040516117469190614863565b613123613710565b6001600160a01b03811661319f5760405162461bcd60e51b815260206004820152602660248201527f4f776e61626c653a206e6577206f776e657220697320746865207a65726f206160448201527f64647265737300000000000000000000000000000000000000000000000000006064820152608401610ab0565b611ccf8161376a565b3360009081526070602052604090205460ff166131c457600080fd5b6000818152606f60205260408120906131dd8282613b2a565b6131eb600183016000613b2a565b60028201600090556003820160006132039190613b2a565b505060405181907f426d20a7bc7a9a3fac3c69e48d630ef6655b4b653d3ccce9bddd3648dddf41a090600090a250565b3360009081526070602052604090205460ff1661324f57600080fd5b61325a8383836134ce565b807f864adecfa3d88ad74c41f0875f37eaa22b5235cb6ed99ff190c44128c48eb602836001604051610ee4929190614a3d565b613295613b97565b60006066600081546132a690614a24565b91829055506000818152606c60205260409020909150806132c78982614726565b506001818101889055600282018390556007820187905560068201805461ffff1916905560088201869055600982018590555b878111613366578060010361332f576000838152606b602090815260408083208484529091529020805460ff19169055613354565b6000838152606b602090815260408083208484529091529020805460ff191660011790555b8061335e81614a24565b9150506132fa565b5080604051806101600160405290816000820180546133849061469e565b80601f01602080910402602001604051908101604052809291908181526020018280546133b09061469e565b80156133fd5780601f106133d2576101008083540402835291602001916133fd565b820191906000526020600020905b8154815290600101906020018083116133e057829003601f168201915b50505091835250506001820154602082015260028201546040820152600380830154606083015260048301546080830152600583015460a0830152600683015460c09092019160ff169081111561345657613456613e34565b600381111561346757613467613e34565b81526020016006820160019054906101000a900460ff16600181111561348f5761348f613e34565b60018111156134a0576134a0613e34565b8152600782015460208201526008820154604082015260099091015460609091015298975050505050505050565b6000818152606c602052604090206002015461351e5760405162461bcd60e51b815260206004820152600f60248201526e52616365206e6f742065786973747360881b6044820152606401610ab0565b60005b8351811015613605576000606f600086848151811061354257613542614a61565b6020026020010151815260200190815260200160002060020154116135a15760405162461bcd60e51b8152602060048201526015602482015274436f6e74657374616e74206e6f742065786973747360581b6044820152606401610ab0565b6000828152606a60205260408120855182908790859081106135c5576135c5614a61565b6020026020010151815260200190815260200160002060006101000a81548160ff02191690831515021790555080806135fd90614a24565b915050613521565b5060005b8251811015611077576000606f600085848151811061362a5761362a614a61565b6020026020010151815260200190815260200160002060020154116136895760405162461bcd60e51b8152602060048201526015602482015274436f6e74657374616e74206e6f742065786973747360581b6044820152606401610ab0565b6000828152606a602052604081208451600192908690859081106136af576136af614a61565b6020026020010151815260200190815260200160002060006101000a81548160ff02191690831515021790555080806136e790614a24565b915050613609565b600080836136fd8487614a77565b6137079190614a96565b95945050505050565b6033546001600160a01b031633146119115760405162461bcd60e51b815260206004820181905260248201527f4f776e61626c653a2063616c6c6572206973206e6f7420746865206f776e65726044820152606401610ab0565b603380546001600160a01b038381166001600160a01b0319831681179093556040519116919082907f8be0079c531659141344cd1fd0a4f28419497f9722a3daafe3b4186f6b6457e090600090a35050565b600054610100900460ff166138275760405162461bcd60e51b815260206004820152602b60248201527f496e697469616c697a61626c653a20636f6e7472616374206973206e6f74206960448201526a6e697469616c697a696e6760a81b6064820152608401610ab0565b611911613a78565b60408051808201909152600681527f5261636520310000000000000000000000000000000000000000000000000000602082015261388e90600361387642620927c061465b565b670de0b6b3a764000068056bc75e2d63100000611cd2565b60408051808201909152600681527f526163652032000000000000000000000000000000000000000000000000000060208201526138d5906003613876426236ee8061465b565b60408051808201909152600681527f5261636520330000000000000000000000000000000000000000000000000000602082015261391c9060036138764262b71b0061465b565b6139906040518060400160405280600c81526020017f436f6e74657374616e7420310000000000000000000000000000000000000000815250604051806040016040528060048152602001634465736360e01b8152506040518060a0016040528060648152602001614ab960649139613075565b613a046040518060400160405280600c81526020017f436f6e74657374616e7420320000000000000000000000000000000000000000815250604051806040016040528060048152602001634465736360e01b8152506040518060a0016040528060648152602001614ab960649139613075565b6119116040518060400160405280600c81526020017f436f6e74657374616e7420330000000000000000000000000000000000000000815250604051806040016040528060048152602001634465736360e01b8152506040518060a0016040528060648152602001614ab960649139613075565b600054610100900460ff16613ae35760405162461bcd60e51b815260206004820152602b60248201527f496e697469616c697a61626c653a20636f6e7472616374206973206e6f74206960448201526a6e697469616c697a696e6760a81b6064820152608401610ab0565b6119113361376a565b8260038101928215613b1a579160200282015b82811115613b1a578251825591602001919060010190613aff565b50613b26929150613c02565b5090565b508054613b369061469e565b6000825580601f10613b46575050565b601f016020900490600052602060002090810190611ccf9190613c02565b8260038101928215613b1a579160200282015b82811115613b1a578251829060ff16905591602001919060010190613b77565b60405180610160016040528060608152602001600081526020016000815260200160008152602001600081526020016000815260200160006003811115613be057613be0613e34565b8152602001600081526020016000815260200160008152602001600081525090565b5b80821115613b265760008155600101613c03565b634e487b7160e01b600052604160045260246000fd5b604051601f8201601f1916810167ffffffffffffffff81118282101715613c5657613c56613c17565b604052919050565b600082601f830112613c6f57600080fd5b813567ffffffffffffffff811115613c8957613c89613c17565b613c9c601f8201601f1916602001613c2d565b818152846020838601011115613cb157600080fd5b816020850160208301376000918101602001919091529392505050565b600082601f830112613cdf57600080fd5b8135602067ffffffffffffffff821115613cfb57613cfb613c17565b8160051b613d0a828201613c2d565b9283528481018201928281019087851115613d2457600080fd5b83870192505b84831015613d4357823582529183019190830190613d2a565b979650505050505050565b60008060008060008060c08789031215613d6757600080fd5b863567ffffffffffffffff80821115613d7f57600080fd5b613d8b8a838b01613c5e565b97506020890135965060408901359550606089013594506080890135935060a0890135915080821115613dbd57600080fd5b50613dca89828a01613cce565b9150509295509295509295565b600080600080600060a08688031215613def57600080fd5b505083359560208501359550604085013594606081013594506080013592509050565b60008060408385031215613e2557600080fd5b50508035926020909101359150565b634e487b7160e01b600052602160045260246000fd5b60028110611ccf57611ccf613e34565b613e6381613e4a565b9052565b60208101613e7483613e4a565b91905290565b600060208284031215613e8c57600080fd5b5035919050565b600080600060608486031215613ea857600080fd5b505081359360208301359350604090920135919050565b600080600080600080600080610100898b031215613edc57600080fd5b88359750602089013567ffffffffffffffff80821115613efb57600080fd5b613f078c838d01613c5e565b985060408b0135975060608b0135965060808b0135955060a08b0135945060c08b0135915080821115613f3957600080fd5b613f458c838d01613cce565b935060e08b0135915080821115613f5b57600080fd5b50613f688b828c01613cce565b9150509295985092959890939650565b80356001600160a01b0381168114613f8f57600080fd5b919050565b60008060408385031215613fa757600080fd5b82359150613fb760208401613f78565b90509250929050565b60008060008060808587031215613fd657600080fd5b8435935060208501359250613fed60408601613f78565b9396929550929360600135925050565b60006020828403121561400f57600080fd5b61401882613f78565b9392505050565b8015158114611ccf57600080fd5b60008060006060848603121561404257600080fd5b8335925060208401359150604084013561405b8161401f565b809150509250925092565b803560ff81168114613f8f57600080fd5b60008060006060848603121561408c57600080fd5b61409584614066565b92506140a360208501614066565b91506140b160408501614066565b90509250925092565b600080604083850312156140cd57600080fd5b6140d683613f78565b915060208301356140e68161401f565b809150509250929050565b6000806000806080858703121561410757600080fd5b84359350602085013567ffffffffffffffff8082111561412657600080fd5b61413288838901613c5e565b9450604087013591508082111561414857600080fd5b61415488838901613c5e565b9350606087013591508082111561416a57600080fd5b5061417787828801613c5e565b91505092959194509250565b60038110613e6357613e63613e34565b6000610120820190508a82526001600160a01b038a1660208301528860408301528760608301528660808301528560a08301526141d360c0830186614183565b6141dc84613e4a565b8360e08301528215156101008301529a9950505050505050505050565b6000815180845260005b8181101561421f57602081850181015186830182015201614203565b81811115614231576000602083870101525b50601f01601f19169290920160200192915050565b60048110613e6357613e63613e34565b600061016080835261426a8184018f6141f9565b9150508b60208301528a60408301528960608301528860808301528760a083015261429860c0830188614246565b6142a186613e4a565b8560e08301528461010083015283610120830152826101408301529c9b505050505050505050505050565b600080600080608085870312156142e257600080fd5b843593506142f260208601613f78565b93969395505050506040820135916060013590565b600080600080600060a0868803121561431f57600080fd5b853567ffffffffffffffff81111561433657600080fd5b61434288828901613c5e565b9860208801359850604088013597606081013597506080013595509350505050565b60008060008060008060c0878903121561437d57600080fd5b86359550602087013567ffffffffffffffff81111561439b57600080fd5b6143a789828a01613c5e565b96999698505050506040850135946060810135946080820135945060a09091013592509050565b600080600080600060a086880312156143e657600080fd5b85359450602086013593506040860135925060608601356144068161401f565b949793965091946080013592915050565b60808152600061442a60808301876141f9565b828103602084015261443c81876141f9565b90508460408401528281036060840152613d4381856141f9565b60008060006060848603121561446b57600080fd5b833567ffffffffffffffff8082111561448357600080fd5b61448f87838801613c5e565b945060208601359150808211156144a557600080fd5b6144b187838801613c5e565b935060408601359150808211156144c757600080fd5b506144d486828701613c5e565b9150509250925092565b6000806000606084860312156144f357600080fd5b833567ffffffffffffffff8082111561450b57600080fd5b61451787838801613cce565b9450602086013591508082111561452d57600080fd5b5061453a86828701613cce565b925050604084013590509250925092565b60006101608251818552614561828601826141f9565b9150506020830151602085015260408301516040850152606083015160608501526080830151608085015260a083015160a085015260c08301516145a860c0860182614246565b5060e08301516145bb60e0860182613e5a565b50610100838101519085015261012080840151908501526101409283015192909301919091525090565b600081518084526020808501945080840160005b83811015614615578151875295820195908201906001016145f9565b509495945050505050565b604081526000614633604083018561454b565b828103602084015261370781856145e5565b634e487b7160e01b600052601160045260246000fd5b6000821982111561466e5761466e614645565b500190565b602081016111f38284614246565b60006020828403121561469357600080fd5b81516140188161401f565b600181811c908216806146b257607f821691505b6020821081036146d257634e487b7160e01b600052602260045260246000fd5b50919050565b601f82111561143657600081815260208120601f850160051c810160208610156146ff5750805b601f850160051c820191505b8181101561471e5782815560010161470b565b505050505050565b815167ffffffffffffffff81111561474057614740613c17565b6147548161474e845461469e565b846146d8565b602080601f83116001811461478957600084156147715750858301515b600019600386901b1c1916600185901b17855561471e565b600085815260208120601f198616915b828110156147b857888601518255948401946001909101908401614799565b50858210156147d65787850151600019600388901b60f8161c191681555b5050505050600190811b01905550565b600081546147f38161469e565b808552602060018381168015614810576001811461482a57614858565b60ff1985168884015283151560051b880183019550614858565b866000528260002060005b858110156148505781548a8201860152908301908401614835565b890184019650505b505050505092915050565b6020815260806020820152600061487d60a08301846147e6565b601f198084830301604085015261489782600187016147e6565b915060028501546060850152808483030160808501525061163e81600386016147e6565b602081526000614018602083018461454b565b6000828210156148e0576148e0614645565b500390565b6000816148f4576148f4614645565b506000190190565b8154815260018201546001600160a01b03166020820152600282015460408201526003820154606082015260048201546080820152600582015460a0820152600682015461012082019061495660c0840160ff8316614183565b61496960e0840160ff8360081c16613e5a565b61497e610100840160ff8360101c1615159052565b5092915050565b6020815260006101608060208401526149a26101808401856147e6565b600185015460408501526002850154606085015260038501546080850152600485015460a0850152600585015460c085015260068501546149e960e0860160ff8316614246565b6149fd610100860160ff8360081c16613e5a565b50600785015461012085015260088501546101408501526009909401549201919091525090565b600060018201614a3657614a36614645565b5060010190565b604081526000614a5060408301856145e5565b905082151560208301529392505050565b634e487b7160e01b600052603260045260246000fd5b6000816000190483118215151615614a9157614a91614645565b500290565b600082614ab357634e487b7160e01b600052601260045260246000fd5b50049056fe68747470733a2f2f73617070686972652d6368656d6963616c2d656c6b2d3438392e6d7970696e6174612e636c6f75642f697066732f516d66504e784a32643839685247323867394a5169716e3869747533506f7632677647644257617236454b4d326ea264697066735822122051855400a4d6adaeffada9db5106185dd2ecfc18dfc6bf284e7bf6705a7e7c7e64736f6c634300080f0033",
    "linkReferences": {},
    "deployedLinkReferences": {}
}